{
  "transactions": [
    {
      "hash": "0x466beb8a1ac934fa853b2f7dcd6edff66165e3dd4d3ae2bb19d70ab0017ba4d5",
      "transactionType": "CALL",
      "contractName": null,
      "contractAddress": "0xc4d732199b7d21207a74cfe6ced4d17dd330c7ea",
      "function": "registerAgent(string,string,address)",
      "arguments": [
        "Atlas",
        "Data Collector",
        "0x1111111111111111111111111111111111111111"
      ],
      "transaction": {
        "from": "0x60ef148485c2a5119fa52ca13c52e9fd98f28e87",
        "to": "0xc4d732199b7d21207a74cfe6ced4d17dd330c7ea",
        "gas": "0x285cb",
        "value": "0x0",
        "input": "0x53bce15e000000000000000000000000000000000000000000000000000000000000006000000000000000000000000000000000000000000000000000000000000000a00000000000000000000000001111111111111111111111111111111111111111000000000000000000000000000000000000000000000000000000000000000541746c6173000000000000000000000000000000000000000000000000000000000000000000000000000000000000000000000000000000000000000000000e4461746120436f6c6c6563746f72000000000000000000000000000000000000",
        "nonce": "0xc",
        "chainId": "0x138b"
      },
      "additionalContracts": [],
      "isFixedGasLimit": false
    },
    {
      "hash": "0xda747d8dd628e126e2b38f641556b084717b184d4dd9af5507020314341f3941",
      "transactionType": "CALL",
      "contractName": null,
      "contractAddress": "0xc4d732199b7d21207a74cfe6ced4d17dd330c7ea",
      "function": "registerAgent(string,string,address)",
      "arguments": [
        "Ledger",
        "Financial Validator",
        "0x2222222222222222222222222222222222222222"
      ],
      "transaction": {
        "from": "0x60ef148485c2a5119fa52ca13c52e9fd98f28e87",
        "to": "0xc4d732199b7d21207a74cfe6ced4d17dd330c7ea",
        "gas": "0x2862a",
        "value": "0x0",
        "input": "0x53bce15e000000000000000000000000000000000000000000000000000000000000006000000000000000000000000000000000000000000000000000000000000000a0000000000000000000000000222222222222222222222222222222222222222200000000000000000000000000000000000000000000000000000000000000064c65646765720000000000000000000000000000000000000000000000000000000000000000000000000000000000000000000000000000000000000000001346696e616e6369616c2056616c696461746f7200000000000000000000000000",
        "nonce": "0xd",
        "chainId": "0x138b"
      },
      "additionalContracts": [],
      "isFixedGasLimit": false
    },
    {
      "hash": "0xf765d3a3a492ee00bc541b8fd11c520b8df0cd917df27fa9289eb85266ad600c",
      "transactionType": "CALL",
      "contractName": null,
      "contractAddress": "0xc4d732199b7d21207a74cfe6ced4d17dd330c7ea",
      "function": "registerAgent(string,string,address)",
      "arguments": [
        "Oracle",
        "Legal/Compliance",
        "0x3333333333333333333333333333333333333333"
      ],
      "transaction": {
        "from": "0x60ef148485c2a5119fa52ca13c52e9fd98f28e87",
        "to": "0xc4d732199b7d21207a74cfe6ced4d17dd330c7ea",
        "gas": "0x285fa",
        "value": "0x0",
        "input": "0x53bce15e000000000000000000000000000000000000000000000000000000000000006000000000000000000000000000000000000000000000000000000000000000a0000000000000000000000000333333333333333333333333333333333333333300000000000000000000000000000000000000000000000000000000000000064f7261636c65000000000000000000000000000000000000000000000000000000000000000000000000000000000000000000000000000000000000000000104c6567616c2f436f6d706c69616e636500000000000000000000000000000000",
        "nonce": "0xe",
        "chainId": "0x138b"
      },
      "additionalContracts": [],
      "isFixedGasLimit": false
    },
    {
      "hash": "0x276bc620cc9a9a34820d4febff03637f22fd2a2228b36e4d710ed0cdd96eb406",
      "transactionType": "CALL",
      "contractName": null,
      "contractAddress": "0xc4d732199b7d21207a74cfe6ced4d17dd330c7ea",
      "function": "registerAgent(string,string,address)",
      "arguments": [
        "Prism",
        "Image/Spatial Analysis",
        "0x4444444444444444444444444444444444444444"
      ],
      "transaction": {
        "from": "0x60ef148485c2a5119fa52ca13c52e9fd98f28e87",
        "to": "0xc4d732199b7d21207a74cfe6ced4d17dd330c7ea",
        "gas": "0x28649",
        "value": "0x0",
        "input": "0x53bce15e000000000000000000000000000000000000000000000000000000000000006000000000000000000000000000000000000000000000000000000000000000a000000000000000000000000044444444444444444444444444444444444444440000000000000000000000000000000000000000000000000000000000000005507269736d0000000000000000000000000000000000000000000000000000000000000000000000000000000000000000000000000000000000000000000016496d6167652f5370617469616c20416e616c7973697300000000000000000000",
        "nonce": "0xf",
        "chainId": "0x138b"
      },
      "additionalContracts": [],
      "isFixedGasLimit": false
    },
    {
      "hash": "0x23a4c4523e81b30531934d3dc5dda37d7f50ab79e3b5f3f9657409046733b27d",
      "transactionType": "CALL",
      "contractName": null,
      "contractAddress": "0xc4d732199b7d21207a74cfe6ced4d17dd330c7ea",
      "function": "registerAgent(string,string,address)",
      "arguments": [
        "Pulse",
        "Sentiment/Market Analysis",
        "0x5555555555555555555555555555555555555555"
      ],
      "transaction": {
        "from": "0x60ef148485c2a5119fa52ca13c52e9fd98f28e87",
        "to": "0xc4d732199b7d21207a74cfe6ced4d17dd330c7ea",
        "gas": "0x28678",
        "value": "0x0",
        "input": "0x53bce15e000000000000000000000000000000000000000000000000000000000000006000000000000000000000000000000000000000000000000000000000000000a00000000000000000000000005555555555555555555555555555555555555555000000000000000000000000000000000000000000000000000000000000000550756c7365000000000000000000000000000000000000000000000000000000000000000000000000000000000000000000000000000000000000000000001953656e74696d656e742f4d61726b657420416e616c7973697300000000000000",
        "nonce": "0x10",
        "chainId": "0x138b"
      },
      "additionalContracts": [],
      "isFixedGasLimit": false
    },
    {
      "hash": "0x38adea7505236d412567a49f2048016aa040fcc31b1d02ef76408e094b8627d5",
      "transactionType": "CALL",
      "contractName": null,
      "contractAddress": "0xc4d732199b7d21207a74cfe6ced4d17dd330c7ea",
      "function": "registerAgent(string,string,address)",
      "arguments": [
        "Tempest",
        "Risk Assessment",
        "0x6666666666666666666666666666666666666666"
      ],
      "transaction": {
        "from": "0x60ef148485c2a5119fa52ca13c52e9fd98f28e87",
        "to": "0xc4d732199b7d21207a74cfe6ced4d17dd330c7ea",
        "gas": "0x285fa",
        "value": "0x0",
        "input": "0x53bce15e000000000000000000000000000000000000000000000000000000000000006000000000000000000000000000000000000000000000000000000000000000a00000000000000000000000006666666666666666666666666666666666666666000000000000000000000000000000000000000000000000000000000000000754656d7065737400000000000000000000000000000000000000000000000000000000000000000000000000000000000000000000000000000000000000000f5269736b204173736573736d656e740000000000000000000000000000000000",
        "nonce": "0x11",
        "chainId": "0x138b"
      },
      "additionalContracts": [],
      "isFixedGasLimit": false
    },
    {
      "hash": "0xb98691607d325b81671950212d433f75411d3b959e22949556b37a68de97a5d0",
      "transactionType": "CALL",
      "contractName": null,
      "contractAddress": "0xc4d732199b7d21207a74cfe6ced4d17dd330c7ea",
      "function": "registerAgent(string,string,address)",
      "arguments": [
        "Sentinel",
        "Historical Data",
        "0x7777777777777777777777777777777777777777"
      ],
      "transaction": {
        "from": "0x60ef148485c2a5119fa52ca13c52e9fd98f28e87",
        "to": "0xc4d732199b7d21207a74cfe6ced4d17dd330c7ea",
        "gas": "0x2860a",
        "value": "0x0",
        "input": "0x53bce15e000000000000000000000000000000000000000000000000000000000000006000000000000000000000000000000000000000000000000000000000000000a00000000000000000000000007777777777777777777777777777777777777777000000000000000000000000000000000000000000000000000000000000000853656e74696e656c000000000000000000000000000000000000000000000000000000000000000000000000000000000000000000000000000000000000000f486973746f726963616c20446174610000000000000000000000000000000000",
        "nonce": "0x12",
        "chainId": "0x138b"
      },
      "additionalContracts": [],
      "isFixedGasLimit": false
    },
    {
      "hash": "0x230759a6e4e304fd2f42abbbe9aec14f1a37e5e0b2a1366b3268f3eecc0f7aa7",
      "transactionType": "CALL",
      "contractName": null,
      "contractAddress": "0xc4d732199b7d21207a74cfe6ced4d17dd330c7ea",
      "function": "registerAgent(string,string,address)",
      "arguments": [
        "Aegis",
        "Consensus/Arbitration",
        "0x8888888888888888888888888888888888888888"
      ],
      "transaction": {
        "from": "0x60ef148485c2a5119fa52ca13c52e9fd98f28e87",
        "to": "0xc4d732199b7d21207a74cfe6ced4d17dd330c7ea",
        "gas": "0x2863a",
        "value": "0x0",
        "input": "0x53bce15e000000000000000000000000000000000000000000000000000000000000006000000000000000000000000000000000000000000000000000000000000000a00000000000000000000000008888888888888888888888888888888888888888000000000000000000000000000000000000000000000000000000000000000541656769730000000000000000000000000000000000000000000000000000000000000000000000000000000000000000000000000000000000000000000015436f6e73656e7375732f4172626974726174696f6e0000000000000000000000",
        "nonce": "0x13",
        "chainId": "0x138b"
      },
      "additionalContracts": [],
      "isFixedGasLimit": false
    }
  ],
  "receipts": [
    {
      "status": "0x1",
      "cumulativeGasUsed": "0x2a164",
      "logs": [
        {
          "address": "0xc4d732199b7d21207a74cfe6ced4d17dd330c7ea",
          "topics": [
            "0x870882ee2ec133a4f61bf54a3ba481971449f3bed2217a06260756327a97d96f",
            "0x0000000000000000000000000000000000000000000000000000000000000001"
          ],
          "data": "0x000000000000000000000000000000000000000000000000000000000000006000000000000000000000000000000000000000000000000000000000000000a00000000000000000000000001111111111111111111111111111111111111111000000000000000000000000000000000000000000000000000000000000000541746c6173000000000000000000000000000000000000000000000000000000000000000000000000000000000000000000000000000000000000000000000e4461746120436f6c6c6563746f72000000000000000000000000000000000000",
          "blockHash": "0xe898599d217d58438d6ede99c06669f7d721b58b7276194d3c0f8a82ba62282b",
          "blockNumber": "0x25fa061",
          "blockTimestamp": "0x6a2ac3a3",
          "transactionHash": "0x466beb8a1ac934fa853b2f7dcd6edff66165e3dd4d3ae2bb19d70ab0017ba4d5",
          "transactionIndex": "0x1",
          "logIndex": "0x0",
          "removed": false
        }
      ],
      "logsBloom": "0x00000000000000000000000000000000000000000000000000000000000200000000000000000000000000000000000000000000000000000000000000040000004000000000000000000000000000000000000000040000000000008000000000000000040000000000000000000000000000000000000000000000000001000000000000000000000000000000000000000000000000000000000000000000000000000000000000000000000000040000000000000000000000000000000000000000000000000000000000000000000000000000000000000000000040000000000000000000000000000000000000000000000000000000000000000000",
      "type": "0x2",
      "transactionHash": "0x466beb8a1ac934fa853b2f7dcd6edff66165e3dd4d3ae2bb19d70ab0017ba4d5",
      "transactionIndex": "0x1",
      "blockHash": "0xe898599d217d58438d6ede99c06669f7d721b58b7276194d3c0f8a82ba62282b",
      "blockNumber": "0x25fa061",
      "gasUsed": "0x1ec89",
      "effectiveGasPrice": "0xba43cfaa0",
      "blobGasUsed": "0xabe0",
      "from": "0x60ef148485c2a5119fa52ca13c52e9fd98f28e87",
      "to": "0xc4d732199b7d21207a74cfe6ced4d17dd330c7ea",
      "contractAddress": null,
      "daFootprintGasScalar": "0x190",
      "l1BaseFeeScalar": "0x2943b",
      "l1BlobBaseFee": "0x131f5890",
      "l1BlobBaseFeeScalar": "0x45567c",
      "l1Fee": "0x13e9056e2bd97b",
      "l1GasPrice": "0x14d8d8e57",
      "l1GasUsed": "0x6e7",
      "operatorFeeConstant": "0x0",
      "operatorFeeScalar": "0x5f5e100",
      "tokenRatio": "0xbf1"
    },
    {
      "status": "0x1",
      "cumulativeGasUsed": "0x2a1ac",
      "logs": [
        {
          "address": "0xc4d732199b7d21207a74cfe6ced4d17dd330c7ea",
          "topics": [
            "0x870882ee2ec133a4f61bf54a3ba481971449f3bed2217a06260756327a97d96f",
            "0x0000000000000000000000000000000000000000000000000000000000000002"
          ],
          "data": "0x000000000000000000000000000000000000000000000000000000000000006000000000000000000000000000000000000000000000000000000000000000a0000000000000000000000000222222222222222222222222222222222222222200000000000000000000000000000000000000000000000000000000000000064c65646765720000000000000000000000000000000000000000000000000000000000000000000000000000000000000000000000000000000000000000001346696e616e6369616c2056616c696461746f7200000000000000000000000000",
          "blockHash": "0x8c6aba7cbcc0a86416cc2647fe86b7c135480452d850ac9f3f842ec6696be52f",
          "blockNumber": "0x25fa064",
          "blockTimestamp": "0x6a2ac3a9",
          "transactionHash": "0xda747d8dd628e126e2b38f641556b084717b184d4dd9af5507020314341f3941",
          "transactionIndex": "0x1",
          "logIndex": "0x0",
          "removed": false
        }
      ],
      "logsBloom": "0x04000000000000000000000000000000000000000000000000000000000200000000000000000000000000000000000000000000000000000000000000000000004000000000000000000000000000000000000000000000000000008000000000000000040000000000000000000000000000000000000000000000000001000000000000000000000000000000000000000000000000000000000000000000000000000000000000000100000000040000000000000000000000000000000000000000000000000000000000000000000000000000000000000000000000000000000000000000000000000000000000000000008000000000000000000000",
      "type": "0x2",
      "transactionHash": "0xda747d8dd628e126e2b38f641556b084717b184d4dd9af5507020314341f3941",
      "transactionIndex": "0x1",
      "blockHash": "0x8c6aba7cbcc0a86416cc2647fe86b7c135480452d850ac9f3f842ec6696be52f",
      "blockNumber": "0x25fa064",
      "gasUsed": "0x1ecd1",
      "effectiveGasPrice": "0xba43cfaa0",
      "blobGasUsed": "0xb220",
      "from": "0x60ef148485c2a5119fa52ca13c52e9fd98f28e87",
      "to": "0xc4d732199b7d21207a74cfe6ced4d17dd330c7ea",
      "contractAddress": null,
      "daFootprintGasScalar": "0x190",
      "l1BaseFeeScalar": "0x2943b",
      "l1BlobBaseFee": "0x131f5890",
      "l1BlobBaseFeeScalar": "0x45567c",
      "l1Fee": "0x14a9f523ab4d0c",
      "l1GasPrice": "0x14d8d8e57",
      "l1GasUsed": "0x72a",
      "operatorFeeConstant": "0x0",
      "operatorFeeScalar": "0x5f5e100",
      "tokenRatio": "0xbf1"
    },
    {
      "status": "0x1",
      "cumulativeGasUsed": "0x2a188",
      "logs": [
        {
          "address": "0xc4d732199b7d21207a74cfe6ced4d17dd330c7ea",
          "topics": [
            "0x870882ee2ec133a4f61bf54a3ba481971449f3bed2217a06260756327a97d96f",
            "0x0000000000000000000000000000000000000000000000000000000000000003"
          ],
          "data": "0x000000000000000000000000000000000000000000000000000000000000006000000000000000000000000000000000000000000000000000000000000000a0000000000000000000000000333333333333333333333333333333333333333300000000000000000000000000000000000000000000000000000000000000064f7261636c65000000000000000000000000000000000000000000000000000000000000000000000000000000000000000000000000000000000000000000104c6567616c2f436f6d706c69616e636500000000000000000000000000000000",
          "blockHash": "0xb1eb138190d38ea27efb1795db3b32efe1777f9f24da234496720caf64454169",
          "blockNumber": "0x25fa067",
          "blockTimestamp": "0x6a2ac3af",
          "transactionHash": "0xf765d3a3a492ee00bc541b8fd11c520b8df0cd917df27fa9289eb85266ad600c",
          "transactionIndex": "0x1",
          "logIndex": "0x0",
          "removed": false
        }
      ],
      "logsBloom": "0x00000000000000000000000000000000000000000000000000000000000200000000000000000000000000000000000000000000020000000000000000000000004000000000000000000000000000000000000000000000000000008000000000000000040000000000000000000000000000000000000000000000000001000000000000000000000000000000000000000000000000000000000000000000000000000000000000000000000000040000000000800000000000000000400000000000000000000000000000000000000000000000000000000000000000000000000000000000000000000000000000000000000000000000000000000000",
      "type": "0x2",
      "transactionHash": "0xf765d3a3a492ee00bc541b8fd11c520b8df0cd917df27fa9289eb85266ad600c",
      "transactionIndex": "0x1",
      "blockHash": "0xb1eb138190d38ea27efb1795db3b32efe1777f9f24da234496720caf64454169",
      "blockNumber": "0x25fa067",
      "gasUsed": "0x1ecad",
      "effectiveGasPrice": "0xba43cfaa0",
      "blobGasUsed": "0xaf00",
      "from": "0x60ef148485c2a5119fa52ca13c52e9fd98f28e87",
      "to": "0xc4d732199b7d21207a74cfe6ced4d17dd330c7ea",
      "contractAddress": null,
      "daFootprintGasScalar": "0x190",
      "l1BaseFeeScalar": "0x2943b",
      "l1BlobBaseFee": "0x13a12b05",
      "l1BlobBaseFeeScalar": "0x45567c",
      "l1Fee": "0x140b2b45fa9c24",
      "l1GasPrice": "0x149a8f0e1",
      "l1GasUsed": "0x702",
      "operatorFeeConstant": "0x0",
      "operatorFeeScalar": "0x5f5e100",
      "tokenRatio": "0xbf1"
    },
    {
      "status": "0x1",
      "cumulativeGasUsed": "0x2a1c4",
      "logs": [
        {
          "address": "0xc4d732199b7d21207a74cfe6ced4d17dd330c7ea",
          "topics": [
            "0x870882ee2ec133a4f61bf54a3ba481971449f3bed2217a06260756327a97d96f",
            "0x0000000000000000000000000000000000000000000000000000000000000004"
          ],
          "data": "0x000000000000000000000000000000000000000000000000000000000000006000000000000000000000000000000000000000000000000000000000000000a000000000000000000000000044444444444444444444444444444444444444440000000000000000000000000000000000000000000000000000000000000005507269736d0000000000000000000000000000000000000000000000000000000000000000000000000000000000000000000000000000000000000000000016496d6167652f5370617469616c20416e616c7973697300000000000000000000",
          "blockHash": "0xbbbc313f0c1516330bef799da096777ddf03680046c86e7eb1ab6806292d7cd0",
          "blockNumber": "0x25fa06a",
          "blockTimestamp": "0x6a2ac3b5",
          "transactionHash": "0x276bc620cc9a9a34820d4febff03637f22fd2a2228b36e4d710ed0cdd96eb406",
          "transactionIndex": "0x1",
          "logIndex": "0x0",
          "removed": false
        }
      ],
      "logsBloom": "0x00000000000000000000000000000000000000000000000000000000000200000000000000000000000000000000000000000000000000000000000000000000004000000000000000000000000000000000000000000000000000008000000008000000040000000000000000000000000000000000000000000000000001000000000000000000000000000000000000000000000000000000000000000000000000000000000000000000000000040000000000000000002000000000000000000000000000000000000000000000000000008000000000000000000000000000000000000000000000000000000000000000000000000000000000000000",
      "type": "0x2",
      "transactionHash": "0x276bc620cc9a9a34820d4febff03637f22fd2a2228b36e4d710ed0cdd96eb406",
      "transactionIndex": "0x1",
      "blockHash": "0xbbbc313f0c1516330bef799da096777ddf03680046c86e7eb1ab6806292d7cd0",
      "blockNumber": "0x25fa06a",
      "gasUsed": "0x1ece9",
      "effectiveGasPrice": "0xba43cfaa0",
      "blobGasUsed": "0xb6d0",
      "from": "0x60ef148485c2a5119fa52ca13c52e9fd98f28e87",
      "to": "0xc4d732199b7d21207a74cfe6ced4d17dd330c7ea",
      "contractAddress": null,
      "daFootprintGasScalar": "0x190",
      "l1BaseFeeScalar": "0x2943b",
      "l1BlobBaseFee": "0x13a12b05",
      "l1BlobBaseFeeScalar": "0x45567c",
      "l1Fee": "0x14f0c474bf52b2",
      "l1GasPrice": "0x149a8f0e1",
      "l1GasUsed": "0x752",
      "operatorFeeConstant": "0x0",
      "operatorFeeScalar": "0x5f5e100",
      "tokenRatio": "0xbf1"
    },
    {
      "status": "0x1",
      "cumulativeGasUsed": "0x30ad2",
      "logs": [
        {
          "address": "0xc4d732199b7d21207a74cfe6ced4d17dd330c7ea",
          "topics": [
            "0x870882ee2ec133a4f61bf54a3ba481971449f3bed2217a06260756327a97d96f",
            "0x0000000000000000000000000000000000000000000000000000000000000005"
          ],
          "data": "0x000000000000000000000000000000000000000000000000000000000000006000000000000000000000000000000000000000000000000000000000000000a00000000000000000000000005555555555555555555555555555555555555555000000000000000000000000000000000000000000000000000000000000000550756c7365000000000000000000000000000000000000000000000000000000000000000000000000000000000000000000000000000000000000000000001953656e74696d656e742f4d61726b657420416e616c7973697300000000000000",
          "blockHash": "0xae43c2eafe4b80e067bde600322b6eecbae4b05cd440cebd1f424328afe2cb75",
          "blockNumber": "0x25fa06d",
          "blockTimestamp": "0x6a2ac3bb",
          "transactionHash": "0x23a4c4523e81b30531934d3dc5dda37d7f50ab79e3b5f3f9657409046733b27d",
          "transactionIndex": "0x2",
          "logIndex": "0x1",
          "removed": false
        }
      ],
      "logsBloom": "0x00000000000000000000000000000000000000000000000000000000000200000000000000000000000000000000000000000000000000000000000000000000004010000000000000000000000000000000000000000000000000008000000000000000040000000000000000000000000000000000000000000000000001000000000000000000000000000000001000000800000000000000000000000000000000000000000000000000000000040000000000000000000000000000000000000000000000000000000000000000000000000000000000000000000000000000000000000000000000000000000000000000000000000000000000000000",
      "type": "0x2",
      "transactionHash": "0x23a4c4523e81b30531934d3dc5dda37d7f50ab79e3b5f3f9657409046733b27d",
      "transactionIndex": "0x2",
      "blockHash": "0xae43c2eafe4b80e067bde600322b6eecbae4b05cd440cebd1f424328afe2cb75",
      "blockNumber": "0x25fa06d",
      "gasUsed": "0x1ed0d",
      "effectiveGasPrice": "0xba43cfaa0",
      "blobGasUsed": "0xb860",
      "from": "0x60ef148485c2a5119fa52ca13c52e9fd98f28e87",
      "to": "0xc4d732199b7d21207a74cfe6ced4d17dd330c7ea",
      "contractAddress": null,
      "daFootprintGasScalar": "0x190",
      "l1BaseFeeScalar": "0x2943b",
      "l1BlobBaseFee": "0x1439c1e2",
      "l1BlobBaseFeeScalar": "0x45567c",
      "l1Fee": "0x15410d933a9536",
      "l1GasPrice": "0x148e89ddb",
      "l1GasUsed": "0x76d",
      "operatorFeeConstant": "0x0",
      "operatorFeeScalar": "0x5f5e100",
      "tokenRatio": "0xbf1"
    },
    {
      "status": "0x1",
      "cumulativeGasUsed": "0x30a5c",
      "logs": [
        {
          "address": "0xc4d732199b7d21207a74cfe6ced4d17dd330c7ea",
          "topics": [
            "0x870882ee2ec133a4f61bf54a3ba481971449f3bed2217a06260756327a97d96f",
            "0x0000000000000000000000000000000000000000000000000000000000000006"
          ],
          "data": "0x000000000000000000000000000000000000000000000000000000000000006000000000000000000000000000000000000000000000000000000000000000a00000000000000000000000006666666666666666666666666666666666666666000000000000000000000000000000000000000000000000000000000000000754656d7065737400000000000000000000000000000000000000000000000000000000000000000000000000000000000000000000000000000000000000000f5269736b204173736573736d656e740000000000000000000000000000000000",
          "blockHash": "0x9e0fca673f6f48a718e48525c20887bd6bfd46548922ffca12d49632c91af251",
          "blockNumber": "0x25fa070",
          "blockTimestamp": "0x6a2ac3c1",
          "transactionHash": "0x38adea7505236d412567a49f2048016aa040fcc31b1d02ef76408e094b8627d5",
          "transactionIndex": "0x2",
          "logIndex": "0x1",
          "removed": false
        }
      ],
      "logsBloom": "0x00000000000000000000000000000000000000000000000000000000000200000000000000000000000000000000000000000000000400000000000000000000004000000000000000000000000000000000000000000000000000008000000000000000040000000000000000000000000000000000000000000000000001000000000400000000000000000000000000000000000000000000000000000000000000000000000000000000000000040000000000000000000000080000000000000000000000000000000000000000000000000000000000000000000000000000000000000000000000000000000000000000000000000000000000000000",
      "type": "0x2",
      "transactionHash": "0x38adea7505236d412567a49f2048016aa040fcc31b1d02ef76408e094b8627d5",
      "transactionIndex": "0x2",
      "blockHash": "0x9e0fca673f6f48a718e48525c20887bd6bfd46548922ffca12d49632c91af251",
      "blockNumber": "0x25fa070",
      "gasUsed": "0x1ecad",
      "effectiveGasPrice": "0xba43cfaa0",
      "blobGasUsed": "0xaf00",
      "from": "0x60ef148485c2a5119fa52ca13c52e9fd98f28e87",
      "to": "0xc4d732199b7d21207a74cfe6ced4d17dd330c7ea",
      "contractAddress": null,
      "daFootprintGasScalar": "0x190",
      "l1BaseFeeScalar": "0x2943b",
      "l1BlobBaseFee": "0x1439c1e2",
      "l1BlobBaseFeeScalar": "0x45567c",
      "l1Fee": "0x140eb5e84c44fc",
      "l1GasPrice": "0x148e89ddb",
      "l1GasUsed": "0x702",
      "operatorFeeConstant": "0x0",
      "operatorFeeScalar": "0x5f5e100",
      "tokenRatio": "0xbf1"
    },
    {
      "status": "0x1",
      "cumulativeGasUsed": "0x2a194",
      "logs": [
        {
          "address": "0xc4d732199b7d21207a74cfe6ced4d17dd330c7ea",
          "topics": [
            "0x870882ee2ec133a4f61bf54a3ba481971449f3bed2217a06260756327a97d96f",
            "0x0000000000000000000000000000000000000000000000000000000000000007"
          ],
          "data": "0x000000000000000000000000000000000000000000000000000000000000006000000000000000000000000000000000000000000000000000000000000000a00000000000000000000000007777777777777777777777777777777777777777000000000000000000000000000000000000000000000000000000000000000853656e74696e656c000000000000000000000000000000000000000000000000000000000000000000000000000000000000000000000000000000000000000f486973746f726963616c20446174610000000000000000000000000000000000",
          "blockHash": "0xeb5781210b0b6c8ab9917504eb852faa456937af6995b1b2d6b1d3f56ce5a8d8",
          "blockNumber": "0x25fa074",
          "blockTimestamp": "0x6a2ac3c9",
          "transactionHash": "0xb98691607d325b81671950212d433f75411d3b959e22949556b37a68de97a5d0",
          "transactionIndex": "0x1",
          "logIndex": "0x0",
          "removed": false
        }
      ],
      "logsBloom": "0x00000000000000000000000000000000000000000000000000000000000200000000000000000000000000000000000000001000000000000000000000000000004020000000000000000000000000000000000000000000000000008000000000000000040000000000000000000000000000000000000000000000000001000000000000000000000000000000000000000000000000000000000000000000000000000000000000000000000000040000000000000000000000000000000000000000000000000000000000000000000000000000000000000100000000000000000000000000000000000000000000000000000000000000000000000000",
      "type": "0x2",
      "transactionHash": "0xb98691607d325b81671950212d433f75411d3b959e22949556b37a68de97a5d0",
      "transactionIndex": "0x1",
      "blockHash": "0xeb5781210b0b6c8ab9917504eb852faa456937af6995b1b2d6b1d3f56ce5a8d8",
      "blockNumber": "0x25fa074",
      "gasUsed": "0x1ecb9",
      "effectiveGasPrice": "0xba43cfaa0",
      "blobGasUsed": "0xb090",
      "from": "0x60ef148485c2a5119fa52ca13c52e9fd98f28e87",
      "to": "0xc4d732199b7d21207a74cfe6ced4d17dd330c7ea",
      "contractAddress": null,
      "daFootprintGasScalar": "0x190",
      "l1BaseFeeScalar": "0x2943b",
      "l1BlobBaseFee": "0x14af3b83",
      "l1BlobBaseFeeScalar": "0x45567c",
      "l1Fee": "0x13e76e6101d183",
      "l1GasPrice": "0x14011b64b",
      "l1GasUsed": "0x71d",
      "operatorFeeConstant": "0x0",
      "operatorFeeScalar": "0x5f5e100",
      "tokenRatio": "0xbf1"
    },
    {
      "status": "0x1",
      "cumulativeGasUsed": "0x5252b",
      "logs": [
        {
          "address": "0xc4d732199b7d21207a74cfe6ced4d17dd330c7ea",
          "topics": [
            "0x870882ee2ec133a4f61bf54a3ba481971449f3bed2217a06260756327a97d96f",
            "0x0000000000000000000000000000000000000000000000000000000000000008"
          ],
          "data": "0x000000000000000000000000000000000000000000000000000000000000006000000000000000000000000000000000000000000000000000000000000000a00000000000000000000000008888888888888888888888888888888888888888000000000000000000000000000000000000000000000000000000000000000541656769730000000000000000000000000000000000000000000000000000000000000000000000000000000000000000000000000000000000000000000015436f6e73656e7375732f4172626974726174696f6e0000000000000000000000",
          "blockHash": "0x106971bd9e46ec76b34983fb3436b5dc176e88f8af9517a6b9b4e88eca8eeef1",
          "blockNumber": "0x25fa077",
          "blockTimestamp": "0x6a2ac3cf",
          "transactionHash": "0x230759a6e4e304fd2f42abbbe9aec14f1a37e5e0b2a1366b3268f3eecc0f7aa7",
          "transactionIndex": "0x2",
          "logIndex": "0x1",
          "removed": false
        }
      ],
      "logsBloom": "0x00000000000000000000000000000000000000000000000000000000000200000000000000000000000000000000000000000000000080000000000000000000004000000000000000000000000000000000000000000000000000008000000000000000040000000000000000000000000000000000000000000000000001000080000000000000000000000000000000000000000000000000000000000000000000000000000000000000000000040000000000000000000000000000000040000000000000000000000000000000000000000000000000000000000000000000000000000000000000000000000000000000000000000000000000000000",
      "type": "0x2",
      "transactionHash": "0x230759a6e4e304fd2f42abbbe9aec14f1a37e5e0b2a1366b3268f3eecc0f7aa7",
      "transactionIndex": "0x2",
      "blockHash": "0x106971bd9e46ec76b34983fb3436b5dc176e88f8af9517a6b9b4e88eca8eeef1",
      "blockNumber": "0x25fa077",
      "gasUsed": "0x1ecdd",
      "effectiveGasPrice": "0xba43cfaa0",
      "blobGasUsed": "0xb540",
      "from": "0x60ef148485c2a5119fa52ca13c52e9fd98f28e87",
      "to": "0xc4d732199b7d21207a74cfe6ced4d17dd330c7ea",
      "contractAddress": null,
      "daFootprintGasScalar": "0x190",
      "l1BaseFeeScalar": "0x2943b",
      "l1BlobBaseFee": "0x14af3b83",
      "l1BlobBaseFeeScalar": "0x45567c",
      "l1Fee": "0x1457c164db1238",
      "l1GasPrice": "0x14011b64b",
      "l1GasUsed": "0x745",
      "operatorFeeConstant": "0x0",
      "operatorFeeScalar": "0x5f5e100",
      "tokenRatio": "0xbf1"
    }
  ],
  "libraries": [],
  "pending": [],
  "returns": {},
  "timestamp": 1781187535,
  "chain": 5003,
  "commit": "d1e1313"
}